{
  "contractName": "TodoList",
  "abi": [
    {
      "anonymous": false,
      "inputs": [
        {
          "indexed": false,
          "internalType": "uint256",
          "name": "id",
          "type": "uint256"
        },
        {
          "indexed": false,
          "internalType": "bool",
          "name": "completed",
          "type": "bool"
        }
      ],
      "name": "TaskCompleted",
      "type": "event"
    },
    {
      "anonymous": false,
      "inputs": [
        {
          "indexed": false,
          "internalType": "uint256",
          "name": "id",
          "type": "uint256"
        },
        {
          "indexed": false,
          "internalType": "string",
          "name": "content",
          "type": "string"
        },
        {
          "indexed": false,
          "internalType": "bool",
          "name": "completed",
          "type": "bool"
        }
      ],
      "name": "TaskCreated",
      "type": "event"
    },
    {
      "inputs": [],
      "name": "taskCount",
      "outputs": [
        {
          "internalType": "uint256",
          "name": "",
          "type": "uint256"
        }
      ],
      "stateMutability": "view",
      "type": "function"
    },
    {
      "inputs": [
        {
          "internalType": "uint256",
          "name": "",
          "type": "uint256"
        }
      ],
      "name": "tasks",
      "outputs": [
        {
          "internalType": "uint256",
          "name": "id",
          "type": "uint256"
        },
        {
          "internalType": "string",
          "name": "content",
          "type": "string"
        },
        {
          "internalType": "bool",
          "name": "completed",
          "type": "bool"
        }
      ],
      "stateMutability": "view",
      "type": "function"
    },
    {
      "inputs": [
        {
          "internalType": "string",
          "name": "_content",
          "type": "string"
        }
      ],
      "name": "createTask",
      "outputs": [],
      "stateMutability": "nonpayable",
      "type": "function"
    },
    {
      "inputs": [
        {
          "internalType": "uint256",
          "name": "_id",
          "type": "uint256"
        }
      ],
      "name": "completeTask",
      "outputs": [],
      "stateMutability": "nonpayable",
      "type": "function"
    },
    {
      "inputs": [
        {
          "internalType": "uint256",
          "name": "_id",
          "type": "uint256"
        }
      ],
      "name": "getTask",
      "outputs": [
        {
          "internalType": "string",
          "name": "content",
          "type": "string"
        },
        {
          "internalType": "bool",
          "name": "completed",
          "type": "bool"
        }
      ],
      "stateMutability": "view",
      "type": "function"
    }
  ],
  "bytecode": "0x60806040525f8055348015610012575f80fd5b50610ba9806100205f395ff3fe608060405234801561000f575f80fd5b5060043610610055575f3560e01c8063111002aa146100595780631d65e77e146100755780638d977672146100a6578063b6cb58a5146100d8578063e1e29558146100f6575b5f80fd5b610073600480360381019061006e9190610644565b610112565b005b61008f600480360381019061008a91906106be565b6101d7565b60405161009d92919061077d565b60405180910390f35b6100c060048036038101906100bb91906106be565b6102c0565b6040516100cf939291906107ba565b60405180910390f35b6100e0610378565b6040516100ed91906107f6565b60405180910390f35b610110600480360381019061010b91906106be565b61037d565b005b5f808154809291906101239061083c565b919050555060405180606001604052805f5481526020018281526020015f151581525060015f805481526020019081526020015f205f820151815f015560208201518160010190816101759190610a7d565b506040820151816002015f6101000a81548160ff0219169083151502179055509050507f05d0fb833127fc08168556d0e7ca9554fc3f6bc843b3b7d2bf1c35aea6bab6605f54825f6040516101cc939291906107ba565b60405180910390a150565b60605f8060015f8581526020019081526020015f206040518060600160405290815f8201548152602001600182018054610210906108b0565b80601f016020809104026020016040519081016040528092919081815260200182805461023c906108b0565b80156102875780601f1061025e57610100808354040283529160200191610287565b820191905f5260205f20905b81548152906001019060200180831161026a57829003601f168201915b50505050508152602001600282015f9054906101000a900460ff1615151515815250509050806020015181604001519250925050915091565b6001602052805f5260405f205f91509050805f0154908060010180546102e5906108b0565b80601f0160208091040260200160405190810160405280929190818152602001828054610311906108b0565b801561035c5780601f106103335761010080835404028352916020019161035c565b820191905f5260205f20905b81548152906001019060200180831161033f57829003601f168201915b505050505090806002015f9054906101000a900460ff16905083565b5f5481565b5f60015f8381526020019081526020015f206040518060600160405290815f82015481526020016001820180546103b3906108b0565b80601f01602080910402602001604051908101604052809291908181526020018280546103df906108b0565b801561042a5780601f106104015761010080835404028352916020019161042a565b820191905f5260205f20905b81548152906001019060200180831161040d57829003601f168201915b50505050508152602001600282015f9054906101000a900460ff16151515158152505090508060400151158160400190151590811515815250508060015f8481526020019081526020015f205f820151815f015560208201518160010190816104939190610a7d565b506040820151816002015f6101000a81548160ff0219169083151502179055509050507fe21fa966ca5cd02748c0752352d18c48165e61cb55b4c29cccf924b5a95fcff18282604001516040516104eb929190610b4c565b60405180910390a15050565b5f604051905090565b5f80fd5b5f80fd5b5f80fd5b5f80fd5b5f601f19601f8301169050919050565b7f4e487b71000000000000000000000000000000000000000000000000000000005f52604160045260245ffd5b61055682610510565b810181811067ffffffffffffffff8211171561057557610574610520565b5b80604052505050565b5f6105876104f7565b9050610593828261054d565b919050565b5f67ffffffffffffffff8211156105b2576105b1610520565b5b6105bb82610510565b9050602081019050919050565b828183375f83830152505050565b5f6105e86105e384610598565b61057e565b9050828152602081018484840111156106045761060361050c565b5b61060f8482856105c8565b509392505050565b5f82601f83011261062b5761062a610508565b5b813561063b8482602086016105d6565b91505092915050565b5f6020828403121561065957610658610500565b5b5f82013567ffffffffffffffff81111561067657610675610504565b5b61068284828501610617565b91505092915050565b5f819050919050565b61069d8161068b565b81146106a7575f80fd5b50565b5f813590506106b881610694565b92915050565b5f602082840312156106d3576106d2610500565b5b5f6106e0848285016106aa565b91505092915050565b5f81519050919050565b5f82825260208201905092915050565b5f5b83811015610720578082015181840152602081019050610705565b5f8484015250505050565b5f610735826106e9565b61073f81856106f3565b935061074f818560208601610703565b61075881610510565b840191505092915050565b5f8115159050919050565b61077781610763565b82525050565b5f6040820190508181035f830152610795818561072b565b90506107a4602083018461076e565b9392505050565b6107b48161068b565b82525050565b5f6060820190506107cd5f8301866107ab565b81810360208301526107df818561072b565b90506107ee604083018461076e565b949350505050565b5f6020820190506108095f8301846107ab565b92915050565b7f4e487b71000000000000000000000000000000000000000000000000000000005f52601160045260245ffd5b5f6108468261068b565b91507fffffffffffffffffffffffffffffffffffffffffffffffffffffffffffffffff82036108785761087761080f565b5b600182019050919050565b7f4e487b71000000000000000000000000000000000000000000000000000000005f52602260045260245ffd5b5f60028204905060018216806108c757607f821691505b6020821081036108da576108d9610883565b5b50919050565b5f819050815f5260205f209050919050565b5f6020601f8301049050919050565b5f82821b905092915050565b5f6008830261093c7fffffffffffffffffffffffffffffffffffffffffffffffffffffffffffffffff82610901565b6109468683610901565b95508019841693508086168417925050509392505050565b5f819050919050565b5f61098161097c6109778461068b565b61095e565b61068b565b9050919050565b5f819050919050565b61099a83610967565b6109ae6109a682610988565b84845461090d565b825550505050565b5f90565b6109c26109b6565b6109cd818484610991565b505050565b5b818110156109f0576109e55f826109ba565b6001810190506109d3565b5050565b601f821115610a3557610a06816108e0565b610a0f846108f2565b81016020851015610a1e578190505b610a32610a2a856108f2565b8301826109d2565b50505b505050565b5f82821c905092915050565b5f610a555f1984600802610a3a565b1980831691505092915050565b5f610a6d8383610a46565b9150826002028217905092915050565b610a86826106e9565b67ffffffffffffffff811115610a9f57610a9e610520565b5b610aa982546108b0565b610ab48282856109f4565b5f60209050601f831160018114610ae5575f8415610ad3578287015190505b610add8582610a62565b865550610b44565b601f198416610af3866108e0565b5f5b82811015610b1a57848901518255600182019150602085019450602081019050610af5565b86831015610b375784890151610b33601f891682610a46565b8355505b6001600288020188555050505b505050505050565b5f604082019050610b5f5f8301856107ab565b610b6c602083018461076e565b939250505056fea26469706673582212205b7ed01deef44f79f9dd9f770343ae6fa7924e742e2795387e6799630f74a33364736f6c63430008150033",
  "immutableReferences": {},
  "source": "// SPDX-License-Identifier: MIT\r\npragma solidity ^0.8.0;\r\n\r\ncontract TodoList {\r\n    uint public taskCount = 0;\r\n\r\n    struct Task {\r\n        uint id;\r\n        string content;\r\n        bool completed;\r\n    }\r\n\r\n    mapping(uint => Task) public tasks;\r\n\r\n    event TaskCreated(\r\n        uint id,\r\n        string content,\r\n        bool completed\r\n    );\r\n\r\n    event TaskCompleted(\r\n        uint id,\r\n        bool completed\r\n    );\r\n\r\n    function createTask(string memory _content) public {\r\n        taskCount++;\r\n        tasks[taskCount] = Task(taskCount, _content, false);\r\n        emit TaskCreated(taskCount, _content, false);\r\n    }\r\n\r\n    function completeTask(uint _id) public {\r\n        Task memory _task = tasks[_id];\r\n        _task.completed = !_task.completed;\r\n        tasks[_id] = _task;\r\n        emit TaskCompleted(_id, _task.completed);\r\n    }\r\n\r\n    function getTask(uint _id) public view returns (string memory content, bool completed) {\r\n        Task memory task = tasks[_id];\r\n        return (task.content, task.completed);\r\n    }\r\n}\r\n",
  "sourcePath": "B:\\Coding\\dev\\Dapp-todo\\contracts\\TodoList.sol",
  "compiler": {
    "name": "solc",
    "version": "0.8.21+commit.d9974bed.Emscripten.clang"
  },
  "schemaVersion": "3.4.16",
  "updatedAt": "2024-10-23T03:39:54.787Z",
  "devdoc": {
    "kind": "dev",
    "methods": {},
    "version": 1
  },
  "userdoc": {
    "kind": "user",
    "methods": {},
    "version": 1
  }
}